:020000040800F2
:10000000000002201920000867200008692000086D
:100010006B2000086D2000086F2000080000000021
:100020000000000000000000000000007120000837
:100030007320000800000000752000088D150008DE
:100040007B2000087D2000087F2000088120000818
:1000500083200008852000088720000889200008E8
:100060008B2000088D2000088F20000891200008B8
:100070009320000895200008972000089920000888
:100080009B2000089D2000089F200008A120000858
:10009000A3200008A5200008A7200008A920000828
:1000A000AB200008AD200008AF200008B1200008F8
:1000B000B3200008B5200008B7200008B9200008C8
:1000C000BB200008BD200008BF200008C120000898
:1000D000C3200008C5200008C7200008C920000868
:1000E000CB200008CD200008CF200008D120000838
:1000F000D3200008D5200008D7200008D920000808
:10010000DB200008DD200008DF200008E1200008D7
:10011000E3200008E5200008E7200008A91C0008EB
:10012000EB200008ED200008EF200008F120000877
:10013000F3200008F5200008F7200008F920000847
:10014000FB200008FD200008FF2000080121000816
:1001500003210008052100080721000809210008E3
:100160000B2100080D2100080F21000811210008B3
:100170001321000815210008172100081921000883
:100180001B2100081D21000810B5054C237833B948
:10019000044B13B10448AFF300800123237010BD5A
:1001A00090000020000000006440000808B5064BE5
:1001B0001BB106480649AFF300800648036813B137
:1001C000054B03B1984708BD0000000064400008DB
:1001D000940000208C00002000000000154B002B34
:1001E00008BF134B9D46A3F5803A00218B460F466E
:1001F0001348144A121A03F06FFA0F4B002B00D069
:1002000098470E4B002B00D0984700200021044651
:100210000D4600200C490022002303F0F9F903F0F9
:1002200035FA2046294601F097FD03F001FA00BF98
:100230000000080000000220000000000000000094
:1002400090000020980700205D36000880B487B039
:1002500000AF786039604FF000037B614FF000031E
:100260003B614FF00003FB604FF000037B6186E0D1
:100270007B694FF0010202FA03F33B613B681A68A5
:100280003B691340FB60FA683B699A4273D17B6813
:100290001A687B694FEA43034FF0030101FA03F345
:1002A0006FEA03031A407B681A607B681A683B6830
:1002B0001B7919467B694FEA430301FA03F31A439A
:1002C0007B681A603B681B79012B03D03B681B7964
:1002D000022B34D17B689A687B694FEA43034FF065
:1002E000030101FA03F36FEA03031A407B689A6083
:1002F0007B689A683B685B7919467B694FEA4303E0
:1003000001FA03F31A437B689A607B685A687B6939
:100310009BB24FF0010101FA03F36FEA03031A40A5
:100320007B685A607B685A683B689B7919467B6991
:100330009BB201FA03F39BB21A437B685A607B6855
:10034000DA687B699BB24FEA43034FF0030101FA7D
:1003500003F36FEA03031A407B68DA607B68DA68AC
:100360003B68DB7919467B694FEA430301FA03F3E3
:100370001A437B68DA607B6903F101037B617B6967
:100380000F2B7FF675AF07F11C07BD4680BC704789
:1003900080B483B000AF78600B467B807B687A883E
:1003A0001A8307F10C07BD4680BC704780B483B048
:1003B00000AF78600B467B807B687A885A8307F1B0
:1003C0000C07BD4680BC704780B483B000AF786036
:1003D0000B467B807B685A697B885A407B685A61F0
:1003E00007F10C07BD4680BC704700BF80B485B0E4
:1003F00000AF786013460A467A807B704FF00003A6
:10040000FB604FF00003BB607A787B8803F0070342
:100410004FEA830302FA03F3FB607B884FEAD303BE
:100420009BB21A467B884FEAD3039BB219467B687E
:1004300001F1080153F821107B8803F007034FEA0C
:1004400083034FF00F0000FA03F36FEA0303194030
:100450007B6802F1080243F822107B884FEAD3033D
:100460009BB21A467B6802F1080253F82220FB680F
:100470001343BB607B884FEAD3039BB21A467B6869
:1004800002F10802B96843F8221007F11407BD46CB
:1004900080BC704780B582B000AF78607A684FF456
:1004A000A843C4F200039A420CD14FF400104FF05D
:1004B000010100F073FB4FF400104FF0000100F059
:1004C0006DFB26E07A684FF4B043C4F200039A4211
:1004D0000CD14FF480004FF0010100F05FFB4FF4AE
:1004E00080004FF0000100F059FB12E07A684FF4F1
:1004F000B843C4F200039A420BD14FF400004FF00E
:10050000010100F04BFB4FF400004FF0000100F040
:1005100045FB07F10807BD4680BD00BF80B58AB026
:1005200000AF786039604FF00003FB844FF00003A8
:100530007B844FF00403BB844FF49053C0F27A03E2
:10054000FB617B689B88FB84FB8C23F03F03FB846F
:1005500007F10C03184600F0E7F97B69FB61FA69C3
:100560004DF68363C4F21B33A3FB02134FEA93439C
:100570007B84FA8C7B8C1343FB847B68FA8C9A8097
:100580007B681B889BB223F001039AB27B681A80B8
:100590004FF00003FB843B681A6848F2A063C0F286
:1005A00001039A4218D83B681B684FEA4303FA6973
:1005B000B2FBF3F3BB84BB8C032B02D84FF00403D4
:1005C000BB84FA8CBB8C1343FB847B8C03F101034B
:1005D0009AB27B681A844BE03B68DA884BF6FF736B
:1005E0009A420AD13B681A6813464FEA43039B18A4
:1005F000FA69B2FBF3F3BB8410E03B681A68134658
:100600004FEA83039B184FEA83029B18FA69B2FBF7
:10061000F3F3BB84BB8C43F48043BB84BB8C4FEAB5
:1006200003534FEA1353002B03D1BB8C43F0010358
:10063000BB84BA8CFB8C13439BB26FEA43436FEAD3
:100640005343FB847B8C4FF4967202FB03F244F617
:10065000D353C1F2620383FB02134FEAA3114FEAA3
:10066000E273CB1A9BB203F101039AB27B681A843E
:100670007B68FA8C9A837B681B889BB243F00103EA
:100680009AB27B681A807B681B88FB84FB8C23F4FE
:10069000816323F00203FB843B689A883B685B8993
:1006A00013439AB2FB8C1343FB847B68FA8C1A8049
:1006B0003B689A893B681B8913439AB27B681A810D
:1006C00007F12807BD4680BD80B483B000AF7860D5
:1006D0000B46FB70FB78002B08D07B681B889BB215
:1006E00043F001039AB27B681A8007E07B681B889D
:1006F0009BB223F001039AB27B681A8007F10C07C2
:10070000BD4680BC704700BF80B483B000AF786046
:100710000B46FB70FB78002B08D07B681B889BB2D4
:1007200043F480739AB27B681A8007E07B681B8869
:100730009BB223F480739AB27B681A8007F10C078E
:10074000BD4680BC704700BF80B483B000AF786006
:100750000B46FB70FB78002B08D07B681B889BB294
:1007600043F400739AB27B681A8007E07B681B88A9
:100770009BB223F400739AB27B681A8007F10C07CE
:10078000BD4680BC704700BF80B483B000AF7860C6
:1007900013460A46FA70BB70BB78002B04D0FB7876
:1007A00043F00103FB7003E0FB7823F00103FB70CF
:1007B000FB789AB27B681A8207F10C07BD4680BCB1
:1007C000704700BF80B483B000AF78600B46FB7009
:1007D000FB78002B08D07B681B889BB243F48063B6
:1007E0009AB27B681A8007E07B681B889BB223F46F
:1007F00080639AB27B681A8007F10C07BD4680BC03
:10080000704700BF80B483B000AF78600B46FB70C8
:10081000FB789AB27B681A8207F10C07BD4680BC50
:10082000704700BF80B483B000AF78607B681B8ADC
:100830009BB2DBB2184607F10C07BD4680BC70477F
:1008400080B487B000AF786039604FF000033B613F
:100850004FF00003FB604FF00003BB604FF000035C
:10086000FB757B689B8A9BB2FB607B681B8B9BB292
:10087000BB60BB684FEA0343BB60FA68BB681343C5
:1008800023F07F433B613A693B681A403B689A42D8
:1008900003D14FF00103FB7502E04FF00003FB753D
:1008A000FB7D184607F11C07BD4680BC704700BFA2
:1008B00080B487B000AF786039604FF00003FB75FB
:1008C0004FF000033B614FF00003FB607B68FB606F
:1008D0003B684FEA13733B613B6823F07F433B6007
:1008E0003B69002B04D0FB6803F11403FB6007E0B5
:1008F0003B684FEA13433B60FB6803F11803FB605E
:10090000FB681A683B681340002B03D04FF00103CB
:10091000FB7502E04FF00003FB75FB7D184607F105
:100920001C07BD4680BC704780B489B000AF7860BA
:100930004FF00003BB614FF000037B614FF00003F9
:10094000FB614FF002033B614FF00003FB604FF08F
:100950000203BB604FF46053C4F202039B6803F0D0
:100960000C03BB61BB69042B0AD0082B0FD0002BF2
:1009700060D17A684FF41053C0F2F403136060E062
:100980007A684FF49053C0F27A03136059E04FF441
:100990006053C4F202035B6803F480034FEA93538D
:1009A000FB604FF46053C4F202035B6803F03F0343
:1009B000BB60FB68002B14D04FF49053C0F27A0355
:1009C000BA68B3FBF2F24FF46053C4F20203596801
:1009D00047F6C0730B404FEA931303FB02F3FB612E
:1009E00013E04FF41053C0F2F403BA68B3FBF2F211
:1009F0004FF46053C4F20203596847F6C0730B40CA
:100A00004FEA931303FB02F3FB614FF46053C4F20C
:100A100002035B6803F440334FEA134303F101031D
:100A20004FEA43033B61FA693B69B2FBF3F27B682F
:100A30001A6006E07A684FF41053C0F2F4031360B2
:100A400000BF4FF46053C4F202039B6803F0F0034D
:100A5000BB61BB694FEA1313BB6140F20003C2F2F2
:100A60000003BA699B181B78DBB27B617B681A684C
:100A70007B6922FA03F27B685A604FF46053C4F238
:100A800002039B6803F4E053BB61BB694FEA932305
:100A9000BB6140F20003C2F20003BA699B181B78E5
:100AA000DBB27B617B685A687B6922FA03F27B6860
:100AB0009A604FF46053C4F202039B6803F46043EE
:100AC000BB61BB694FEA5333BB6140F20003C2F222
:100AD0000003BA699B181B78DBB27B617B685A689C
:100AE0007B6922FA03F27B68DA6007F12407BD46CE
:100AF00080BC704780B483B000AF78600B46FB7059
:100B0000FB78002B0CD04FF46053C4F202034FF477
:100B10006052C4F20202116B7A680A431A630DE054
:100B20004FF46053C4F202034FF46052C4F2020265
:100B3000116B7A686FEA02020A401A6307F10C0728
:100B4000BD4680BC704700BF80B483B000AF786002
:100B50000B46FB70FB78002B0CD04FF46053C4F2B3
:100B600002034FF46052C4F20202116C7A680A4325
:100B70001A640DE04FF46053C4F202034FF4605264
:100B8000C4F20202116C7A686FEA02020A401A6427
:100B900007F10C07BD4680BC704700BF80B483B02E
:100BA00000AF78600B46FB70FB78002B0CD04FF445
:100BB0006053C4F202034FF46052C4F20202116A9D
:100BC0007A680A431A620DE04FF46053C4F20203DC
:100BD0004FF46052C4F20202116A7A686FEA0202AC
:100BE0000A401A6207F10C07BD4680BC704700BF7F
:100BF00080B58AB000AF786039604FF000037B6247
:100C00004FF000033B624FF00003FB614FF0000325
:100C1000BB617B681B8A9BB27B627B6A23F4405377
:100C20007B623B68DB887A6A13437B627B6A9AB299
:100C30007B681A827B689B899BB27B627B6A23F408
:100C4000B05323F00C037B623B689A883B681B8996
:100C500013439AB23B685B8913439BB27A6A13438E
:100C60007B627B6A9AB27B689A817B689B8A9BB223
:100C70007B627B6A23F440737B623B689B897A6A60
:100C800013437B627B6A9AB27B689A8207F10803FE
:100C90001846FFF749FE7A684FF48053C4F2010307
:100CA0009A4206D07A684FF4A053C4F201039A42E4
:100CB00002D17B693B6201E03B693B627B689B89B7
:100CC0009BB29BB21BB2002B0FDA3A6A13464FEA73
:100CD00083039B184FEA83029A183B681B684FEA0C
:100CE0004303B2FBF3F3FB610EE03A6A13464FEAAB
:100CF00083039B184FEA83029A183B681B684FEAEC
:100D00008303B2FBF3F3FB61FA6948F21F53C5F2A8
:100D1000EB13A3FB02134FEA53134FEA03137B6257
:100D20007B6A4FEA13134FF0640202FB03F3FA6984
:100D3000D31ABB617B689B899BB29BB21BB2002B11
:100D400012DABB694FEAC30303F1320248F21F53C0
:100D5000C5F2EB13A3FB02134FEA531303F007038F
:100D60007A6A13437B6211E0BB694FEA031303F114
:100D7000320248F21F53C5F2EB13A3FB02134FEAF2
:100D8000531303F00F037A6A13437B627B6A9AB2B0
:100D90007B681A8107F12807BD4680BD80B483B007
:100DA00000AF78600B46FB70FB78002B08D07B68A7
:100DB0009B899BB243F400539AB27B689A8107E007
:100DC0007B689B899BB223F400539AB27B689A811B
:100DD00007F10C07BD4680BC704700BF80B483B0EC
:100DE00000AF78600B467B807B884FEAC3534FEAA5
:100DF000D3539AB27B689A8007F10C07BD4680BC3A
:100E0000704700BF80B483B000AF0346FB714FF45E
:100E10006143CEF2000397F907204FEA5212F979A5
:100E200001F01F014FF0010000FA01F143F8221018
:100E300007F10C07BD4680BC704700BF80B483B08B
:100E400000AF0346FB714FF46143CEF2000397F904
:100E500007204FEA5212F97901F01F014FF001000B
:100E600000FA01F102F1200243F8221007F10C0709
:100E7000BD4680BC704700BF80B500AF4FF0010099
:100E800000F032F84FF0000000F044F84FF000009E
:100E900000F056F84FF0000000F068F880BD00BF89
:100EA00080B500AF00F00AF80346342B02D14FF0B2
:100EB000010301E04FF00003184680BD80B584B007
:100EC00002AF07F1070300934FF0D0004FF0750118
:100ED0004FF006024FF0060300F0E2F8FB791846E7
:100EE00007F10807BD4680BD80B584B002AF034658
:100EF000FB71FB7900934FF0D0004FF06B014FF086
:100F000002024FF0030300F043F807F10807BD4663
:100F100080BD00BF80B584B002AF0346FB71FB7992
:100F200000934FF0D0004FF01B014FF004024FF040
:100F3000020300F02DF807F10807BD4680BD00BF91
:100F400080B584B002AF0346FB71FB7900934FF08C
:100F5000D0004FF01C014FF004024FF0020300F0EC
:100F600017F807F10807BD4680BD00BF80B582B005
:100F700000AF0346FB71FB794FF0D0004FF06B01DF
:100F80004FF0060200F04EF807F10807BD4680BD9D
:100F900080B584B000AFF871B9717A713B71F9799D
:100FA00007F10E02BB79084611461A464FF00103BD
:100FB00000F088F93B794FF0010202FA03F303F1E4
:100FC000FF3279793B79CB1A03F1010302FA03F37B
:100FD000FB733A7E79793B79CB1A03F1010302FA6C
:100FE00003F33B763A7EFB7B13403B76FB7B6FEA59
:100FF0000303DAB2BB7BDBB21340DBB2DBB2BB7301
:10100000BA7B3B7E1343DBB2BB73F97907F10E0267
:10101000BB79084611461A4600F0E4F807F11007BC
:10102000BD4680BD80B584B000AFF871B9717A71EA
:101030003B71F97907F10F02BB79084611461A4650
:101040004FF0010300F03EF93B79002B0BD07B7988
:101050004FF0010202FA03F3DAB2FB7BDBB2134377
:10106000DBB2DBB20DE07B794FF0010202FA03F351
:10107000DBB26FEA0303DAB2FB7BDBB21340DBB215
:10108000DBB2FB73F97907F10F02BB790846114611
:101090001A4600F0A7F807F11007BD4680BD00BF53
:1010A00080B584B000AFF871B9717A713B71F9798C
:1010B00007F10E02BB79084611461A464FF00103AC
:1010C00000F000F93B794FF0010202FA03F303F15B
:1010D000FF3279793B79CB1A03F1010302FA03F36A
:1010E000FB73BA7BFB7B1340DBB2BB73BB7B1A4643
:1010F00079793B79CB1A03F1010342FA03F3DBB2AE
:10110000BB73BA7BBB691A7007F11007BD4680BD7F
:1011100080B586B000AF4FF400104FF00101FFF72B
:1011200013FD4FF002004FF00101FFF7E3FC4FF415
:10113000C0733B604FF000037B714FF002033B71C3
:101140004FF00103BB714FF00003FB713B464FF4BE
:101150008060C4F202001946FFF778F84FF480600F
:10116000C4F202004FF008014FF00402FFF73EF90D
:101170004FF48060C4F202004FF007014FF0040208
:10118000FFF734F94FF4A840C4F20000FFF782F9EA
:101190004FF00003BB814BF6FF73FB814FF0D00390
:1011A0003B824FF480637B824FF48043BB8248F2E2
:1011B000A063C0F20103BB6007F108034FF4A8402D
:1011C000C4F200001946FFF7A9F94FF4A840C4F291
:1011D00000004FF00101FFF777FA07F11807BD464D
:1011E00080BD00BF80B582B000AF396013460246B3
:1011F000FA71BB714FF4A840C4F200004FF0010136
:10120000FFF782FA00BF4FF4A840C4F200004FF08D
:101210000101C0F20301FFF713FB0346002BF2D0DC
:10122000FB794FF4A840C4F2000019464FF00002C9
:10123000FFF7AAFA00BF4FF4A840C4F200004FF035
:101240008201C0F20701FFF7FBFA0346002BF2D040
:10125000BB794FF4A840C4F200001946FFF7D2FA58
:1012600000BF4FF4A840C4F200004FF08401C0F268
:101270000701FFF7E5FA0346002BF2D03B681B7825
:101280004FF4A840C4F200001946FFF7BBFA00BFB4
:101290004FF4A840C4F200004FF08401C0F20701EF
:1012A000FFF7CEFA0346002BF2D04FF4A840C4F269
:1012B00000004FF00101FFF747FA07F10807BD46AC
:1012C00080BD00BF80B582B000AF39600146F971C2
:1012D000BA71BB8040F2AC03C2F200034FF00002CF
:1012E0001A604FF03700FFF78DFD00BF4FF4A840A4
:1012F000C4F200004FF40031FFF7DAFA0346002B86
:10130000F4D14FF4A840C4F200004FF00101FFF700
:10131000FBF900BF4FF4A840C4F200004FF00101F8
:10132000C0F20301FFF78CFA0346002BF2D0FB79E1
:101330004FF4A840C4F2000019464FF00002FFF736
:1013400023FA00BF4FF4A840C4F200004FF082011E
:10135000C0F20701FFF774FA0346002BF2D04FF4F6
:10136000A840C4F200004FF00101FFF7ADF9BB79CE
:101370004FF4A840C4F200001946FFF743FA00BF3B
:101380004FF4A840C4F200004FF08401C0F20701FE
:10139000FFF756FA0346002BF2D04FF4A840C4F2F0
:1013A00000004FF00101FFF7AFF900BF4FF4A84074
:1013B000C4F200004FF00101C0F20301FFF740FA50
:1013C0000346002BF2D0FB794FF4A840C4F2000092
:1013D00019464FF00102FFF7D7F900BF4FF4A840BC
:1013E000C4F200004FF00201C0F20301FFF728FA37
:1013F0000346002BF2D031E0BB88012B0FD14FF414
:10140000A840C4F200004FF00001FFF7DBF94FF4F1
:10141000A840C4F200004FF00101FFF795F94FF426
:10142000A840C4F200004FF04001C0F20301FFF7F2
:1014300007FA0346002B11D04FF4A840C4F2000075
:10144000FFF7F0F903461A463B681A703B6803F150
:1014500001033B60BB8803F1FF33BB80BB88002BDB
:10146000CAD14FF4A840C4F200004FF00101FFF7C9
:10147000A9F940F2AC03C2F200034FF000021A6077
:101480004FF03700FFF7DAFC07F10807BD4680BDD3
:1014900080B483B000AF0346FB714FF46143CEF2DA
:1014A000000397F907204FEA5212F97901F01F0162
:1014B0004FF0010000FA01F102F1200243F822107E
:1014C00007F10C07BD4680BC704700BF80B483B0F5
:1014D00000AF03463960FB7197F90730002B10DA33
:1014E0004FF46D43CEF20003FA7902F00F02A2F13D
:1014F00004013A68D2B24FEA0212D2B25B181A76ED
:101500000DE04FF46143CEF2000397F907103A68FB
:10151000D2B24FEA0212D2B25B1883F8002307F16D
:101520000C07BD4680BC704780B582B000AF7860C4
:101530007A686FF07F439A4202D94FF001031FE0AF
:101540004EF21003CEF200037A6822F07F4202F1DD
:10155000FF325A604FF0FF304FF00F01FFF7B6FF38
:101560004EF21003CEF200034FF000029A604EF2EA
:101570001003CEF200034FF007021A604FF0000391
:10158000184607F10807BD4680BD00BF80B400AF14
:1015900040F22A43C2F200031B889BB2002B0DD0FD
:1015A00040F22A43C2F200031B889BB203F1FF33CF
:1015B0009AB240F22A43C2F200031A80BD4680BCB0
:1015C000704700BF80B483B000AF786003E07B68F1
:1015D00003F1FF337B607B68002BF8D107F10C0728
:1015E000BD4680BC704700BF80B582B000AF786058
:1015F000396014E000BF7B681B889BB203F0400396
:10160000002BF8D03B681B78DBB278681946FFF7EF
:10161000E5FB3B681B783B6803F101033B603B68DB
:101620001B78DBB2002BE5D107F10807BD4680BD72
:1016300080B586B000AF4FF400304FF00101FFF7E6
:1016400083FA4FF001004FF00101FFF753FA4FF01A
:1016500004033B614FF002033B754FF002037B75BF
:101660004FF00003BB754FF00103FB7507F110034A
:101670004FF00000C4F202001946FEF7E7FD4FF0FC
:101680000000C4F202004FF002014FF00702FEF723
:10169000ADFE4FF4E1333B604FF00003BB804FF0F1
:1016A0000003FB804FF000033B814FF00003BB8140
:1016B0004FF008037B813B464FF48840C4F20000A2
:1016C0001946FFF795FA4FF48840C4F200004FF036
:1016D0000101FFF763FB07F11807BD4680BD00BF9E
:1016E00080B582B000AF4FF008004FF00101FFF766
:1016F00001FA4FF246033B604FF001033B714FF09C
:101700000003BB714FF003037B714FF00003FB71CB
:101710003B464FF44060C4F202001946FEF796FDC6
:1017200007F10807BD4680BD80B58EB000AF07F158
:1017300004034FF0D00019464FF043024FF0060368
:10174000FFF7C0FD3B79FB867B79BB86BB797B8647
:10175000FB793B863B7AFB857B7ABB85FB8E4FEA28
:1017600003239AB2BB8ED3189BB29AB240F21843AD
:10177000C2F20003DA807B8E4FEA03239AB23B8EDB
:10178000D3189BB29AB240F21843C2F200031A81F6
:10179000FB8D4FEA03239AB2BB8DD3189BB29AB24A
:1017A00040F21843C2F200035A8107F104034FF0DC
:1017B000D00019464FF03B024FF00603FFF782FDC1
:1017C0003B797B857B793B85BB79FB84FB79BB844B
:1017D0003B7A7B847B7A3B847B8D4FEA03239AB2EE
:1017E0003B8DD3189BB29AB240F21843C2F2000369
:1017F0001A80FB8C4FEA03239AB2BB8CD3189BB29E
:101800009AB240F21843C2F200035A807B8C4FEA2E
:1018100003239AB23B8CD3189BB29AB240F218437E
:10182000C2F200039A8040F21003C2F200034FF0AC
:1018300018021A704FF00A004FF0010100F0BCF9D5
:1018400040F22A43C2F200034FF00A021A8000BF9E
:1018500040F22A43C2F200031B889BB2002BF7D14F
:1018600007F104034FF0180019464FF003024FF040
:101870000603FFF727FD40F21003C2F200034FF00A
:10188000D0021A703B79FB837B79BB83BB797B8366
:10189000FB793B833B7AFB827B7ABB82FB8B4FEAF3
:1018A00003239AB2BB8BD3189BB29AB240F218436F
:1018B000C2F200039A817B8B4FEA03239AB23B8BDF
:1018C000D3189BB29AB240F21843C2F20003DA81F5
:1018D000FB8A4FEA03239AB2BB8AD3189BB29AB20F
:1018E00040F21843C2F200031A8207F13807BD46DE
:1018F00080BD00BF00000000B0B582B000AF13464D
:101900000246FA800A46BA807B80B7F9063018464C
:1019100001F006FB04460D46B7F90430B7F9042080
:1019200002FB03F2B7F90230B7F9021001FB03F32F
:10193000D318184601F0F4FA02460B4643EC102B7C
:1019400000F03CFF53EC102B2046294601F078FCB8
:1019500002460B461046194640F2B803C2F2000395
:10196000C3E9000140F2B803C2F2000393ED007B2B
:10197000B0EE470AF0EE670A00F0F2FC53EC102BD1
:10198000104619464FF000024FF40043C4F26603BC
:1019900001F02CFB02460B461046194640F2B803F4
:1019A000C2F20003C3E9000140F2B803C2F200032F
:1019B000D3E90023104619465BA3D3E9002301F0C5
:1019C0003FFC02460B461046194640F2B803C2F2ED
:1019D0000003C3E9000140F2B803C2F2000393ED33
:1019E000007BB0EE470AF0EE670A00F093FEB0EE1F
:1019F000407AF0EE607A40F2B803C2F2000383ED61
:101A0000007BB7F90430184601F08AFA04460D4607
:101A1000B7F90630B7F9062002FB03F2B7F9023036
:101A2000B7F9021001FB03F3D318184601F078FA56
:101A300002460B4643EC102B00F0C0FE53EC102B7B
:101A40002046294601F0FCFB02460B46104619468B
:101A500040F2B803C2F20003C3E9020140F2B80346
:101A6000C2F2000393ED027BB0EE470AF0EE670A84
:101A700000F076FC53EC102B104619464FF0000294
:101A80004FF40043C4F2660301F0B0FA02460B467D
:101A90001046194640F2B803C2F20003C3E902013E
:101AA00040F2B803C2F20003D3E9022310461946FC
:101AB0001DA3D3E9002301F0C3FB02460B461046E9
:101AC000194640F2B803C2F20003C3E9020140F232
:101AD000B803C2F2000393ED027BB0EE470AF0EECA
:101AE000670A00F017FEB0EE407AF0EE607A40F23E
:101AF000B803C2F2000383ED027B40F2B803C2F2E6
:101B00000003D3E902231046194601F009FD0346FC
:101B10009BB21AB240F2B803C2F200035A6307F153
:101B20000807BD46B0BD00BF00000060FB210940B2
:101B300080B500AF4FF023004FF0FF0100F03CF8FC
:101B40004FF0D0004FF037014FF001024FF001038A
:101B5000FFF768FA4FF06B004FF0010100F02CF82E
:101B60004FF019004FF0040100F026F84FF01A0072
:101B70004FF0030100F020F84FF06A004FF0010130
:101B800000F01AF84FF01B004FF0180100F014F8A5
:101B90004FF01C004FF0080100F00EF84FF0370036
:101BA0004FF0320100F008F84FF038004FF001011B
:101BB00000F002F880BD00BF80B584B000AF0246DF
:101BC0000B46FA71BB714FF00003FB604FF000034E
:101BD000FB6020E0BA794FF00101FB6801FA03F3E2
:101BE0001A404FF00101FB6801FA03F39A4214BF57
:101BF00000230123DBB2FB7240F21003C2F20003A8
:101C00001878FB68DAB2F979FB7AFFF70BFAFB6810
:101C100003F10103FB60FB68072BDBDD07F1100715
:101C2000BD4680BD80B400AF4FF46053C4F20203E0
:101C30004FF46052C4F20202126C42F020021A64A5
:101C40004FF4A053C4F200034FF080021A804FF407
:101C5000A053C4F200034AF20F421A854FF4A05376
:101C6000C4F200034FF47A72DA624FF4A053C4F264
:101C700000034FF001029A814FF46143CEF200035A
:101C80004FF400025A604FF4A053C4F200034FF423
:101C9000A052C4F20002128892B242F0010292B243
:101CA0001A80BD4680BC704780B500AF40F2AC03DF
:101CB000C2F200031B68032B09D100F01DF840F2AB
:101CC000AC03C2F200034FF006021A600BE040F2D0
:101CD000AC03C2F200031B6803F1010240F2AC0343
:101CE000C2F200031A604FF4A053C4F200034FF095
:101CF00000021A8280BD00BF80B500AF4FF488405B
:101D0000C4F2000043F62471C0F60001FFF76CFC3A
:101D10004FF44060C4F202004FF47041FEF746FBFE
:101D20004FF44060C4F202004FF48051FEF730FBE4
:101D30006FF07F40FFF746FC4FF44060C4F20200B2
:101D40004FF48051FEF732FB6FF07F40FFF73AFC13
:101D5000E6E700BF00000000B0B588B002AF00F0B9
:101D6000E3F9FFF7BDFCFFF763FC40F21403C2F296
:101D700000031A6844F6D353C1F26203A3FB0213B3
:101D80004FEA93131846FFF7CFFB07F104031846F9
:101D9000FEF7CAFDFFF746FF4FF03700FFF778FB6D
:101DA000FFF7B6F94FF44060C4F202004FF400416F
:101DB000FEF7EEFAFFF760F84FF44060C4F202005D
:101DC0004FF40041FEF7F2FAFFF76AF84FF0000017
:101DD000FFF7A0F8FFF7ACFEFFF7A6FC40F21843B0
:101DE000C2F20003DB891BB2184601F099F80446E1
:101DF0000D4640F21843C2F200039B891BB21846FD
:101E000001F08EF802460B4645EC104B43EC112BCB
:101E100000F0D2FC53EC102B104619464FF0000294
:101E20004FF40043C4F2660301F0E0F802460B46AB
:101E30001046194676A3D3E9002301F001FA0246C1
:101E40000B461046194601F093FB03467B6140F2B6
:101E50001843C2F20003DB881AB240F21843C2F200
:101E600000031B891CB240F21843C2F200035B89D5
:101E70001BB2009340F25470C2F2000043F634717A
:101E8000C0F60001234601F02FFC4FF48840C4F255
:101E9000000040F25471C2F20001FFF7A5FB40F2CE
:101EA0001843C2F200031B881AB240F21843C2F270
:101EB00000035B881CB240F21843C2F200039B8807
:101EC0001BB2009340F25470C2F2000043F65C7102
:101ED000C0F60001234601F007FC4FF48840C4F22D
:101EE000000040F25471C2F20001FFF77DFBD7ED14
:101EF000057AFDEEE77A17EE905A40F21843C2F2E7
:101F000000039B891CB240F21843C2F20003DB8934
:101F10001AB240F21843C2F200031B8A1BB20092AD
:101F2000019340F25470C2F2000043F68871C0F68B
:101F300000012A46234601F0D7FB4FF48840C4F243
:101F4000000040F25471C2F20001FFF74DFB40F275
:101F50001843C2F20003198840F21843C2F200038A
:101F60005A8840F21843C2F200039B8809B212B2A9
:101F70001BB2084611461A46FFF7BEFC40F2B803F2
:101F8000C2F20003D3E900231046194601F0C8FA53
:101F9000044640F2B803C2F20003D3E9022310461C
:101FA000194601F0BDFA0346D7ED057AFDEEE77A52
:101FB000CDED007A40F25470C2F2000043F6B871E1
:101FC000C0F60001224601F08FFB4FF48840C4F2B6
:101FD000000040F25471C2F20001FFF705FB4FF41C
:101FE0004060C4F202004FF47041FEF7EDF940F298
:101FF0002A43C2F200034FF002021A8000BF40F2EF
:102000002A43C2F200031B889BB2002BF7D1E3E600
:1020100000000060FB2109400749084A084B9A422A
:10202000BEBF51F8040B42F8040BFFF7F8BF054898
:10203000804705480047000070400008000000206D
:102040008C00002029210008DD0100083449354AB0
:10205000002300F002B841F8043B9142FFF4FBAFCB
:10206000FFF77AFEFEE7FEE7FEE7FEE7FEE7FEE7A4
:10207000FEE7FEE7FEE7FEE7FEE7FEE7FEE7FEE738
:10208000FEE7FEE7FEE7FEE7FEE7FEE7FEE7FEE728
:10209000FEE7FEE7FEE7FEE7FEE7FEE7FEE7FEE718
:1020A000FEE7FEE7FEE7FEE7FEE7FEE7FEE7FEE708
:1020B000FEE7FEE7FEE7FEE7FEE7FEE7FEE7FEE7F8
:1020C000FEE7FEE7FEE7FEE7FEE7FEE7FEE7FEE7E8
:1020D000FEE7FEE7FEE7FEE7FEE7FEE7FEE7FEE7D8
:1020E000FEE7FEE7FEE7FEE7FEE7FEE7FEE7FEE7C8
:1020F000FEE7FEE7FEE7FEE7FEE7FEE7FEE7FEE7B8
:10210000FEE7FEE7FEE7FEE7FEE7FEE7FEE7FEE7A7
:10211000FEE7FEE7FEE7FEE7FEE7FEE7FEE700007C
:10212000900000209807002080B500AF4FF46D4369
:10213000CEF200034FF46D42CEF20002D2F88820B6
:1021400042F47002C3F888204FF46053C4F20203D3
:102150004FF46052C4F20202126842F001021A60A7
:102160004FF46053C4F202034FF000029A604FF440
:102170006053C4F202034FF46052C4F202021268C8
:1021800022F0847222F480321A604FF46053C4F259
:10219000020343F21002C2F200425A604FF460534D
:1021A000C4F202034FF46052C4F20202126822F435
:1021B00080221A604FF46053C4F202034FF0000211
:1021C000DA6000F009F84FF46D43CEF200034FF0EF
:1021D00000629A6080BD00BF80B483B000AF4FF052
:1021E00000037B604FF000033B604FF46053C4F288
:1021F00002034FF46052C4F20202126842F48032C9
:102200001A604FF46053C4F202031B6803F40033F6
:102210003B607B6803F101037B603B68002B03D1CB
:102220007B68B3F5C06FECD14FF46053C4F2020386
:102230001B6803F40033002B03D04FF001033B6015
:1022400002E04FF000033B603B68012B40F08280CE
:102250004FF46053C4F202034FF46052C4F202021E
:10226000126C42F080521A644FF4E043C4F200034F
:102270004FF4E042C4F20002126842F480421A6055
:102280004FF46053C4F202034FF46052C4F20202EE
:1022900092689A604FF46053C4F202034FF46052A4
:1022A000C4F20202926842F400429A604FF4605312
:1022B000C4F202034FF46052C4F20202926842F484
:1022C000A0529A604FF46053C4F2020345F20842F0
:1022D000C0F640025A604FF46053C4F202034FF458
:1022E0006052C4F20202126842F080721A6000BFAB
:1022F0004FF46053C4F202031B6803F00073002B19
:10230000F6D04FF47053C4F2020340F205621A6033
:102310004FF46053C4F202034FF46052C4F202025D
:10232000926822F003029A604FF46053C4F20203F1
:102330004FF46052C4F20202926842F002029A60C4
:1023400000BF4FF46053C4F202039B6803F00C0318
:10235000082BF6D107F10C07BD4680BC704700BFC3
:102360002DE9F84F10EE909A4FF6FF7229F00046D3
:10237000C4F20F42964210EE108A10EE901A10EE40
:1023800090AA20DD0023C7F6F0739E4200F3C180BF
:1023900014BF00230123B8F1000F0CBF002203F08B
:1023A0000102002A40F0B58042F2FB194B4642F68A
:1023B0001858CBF6F979C3F6F973C5F244480029E9
:1023C000C8BF9946ADE04FF6FF73C3F6DB739E427C
:1023D00000F3BF804FF6FF73C3F61F639E4240F3C6
:1023E000A6804FF0FF3B42464B464046494600F030
:1023F000FDFD02460B4606460F4600F0F7FDAAA378
:10240000D3E9002304460D4600F0F0FDA8A3D3E96C
:10241000002300F039FC22462B4600F0E7FDA6A37E
:10242000D3E9002300F030FC22462B4600F0DEFD0D
:10243000A3A3D3E9002300F027FC22462B4600F09B
:10244000D5FDA1A3D3E9002300F01EFC22462B46B4
:1024500000F0CCFD9EA3D3E9002300F015FC32462A
:102460003B4600F0C3FD9CA3D3E9002306460F467C
:102470002046294600F0BAFD99A3D3E9002300F0D5
:1024800001FC22462B4600F0B1FD97A3D3E90023BF
:1024900000F0F8FB22462B4600F0A8FD94A3D3E9F8
:1024A000002300F0EFFB22462B4600F09FFD92A395
:1024B000D3E9002300F0E6FB22462B4600F096FD10
:1024C000BBF1FF3F02460B467BD03046394600F059
:1024D000DBFB4B46424600F089FD714C714B4FEAE5
:1024E000CB0B5C449B44DBE9002300F0CBFB4B4669
:1024F000424600F0C7FB02460B46D4E9000100F05B
:10250000C1FBBAF1000F8046B4BF01F10049894612
:1025100007E04046424649464B4600F0B5FB804640
:10252000894642464B4643EC102BBDE8F88F5AA330
:10253000D3E9002310EE100A10EE901A00F0A4FB6D
:1025400000230022C3F6F07300F0E0FF0028E8D17A
:1025500047E710EE903A10EE102A43EC102B00F0F3
:10256000CFF84FF6FF73C3F6F2739E4255EC104B53
:102570003ADC4FF6FF73C3F6E5739E426CDC10EE57
:10258000102A10EE100A2B46294600F07DFB00238E
:102590000022C3F6F07300F075FB002206460F46DA
:1025A0004FF080432046294600F06EFB02460B4662
:1025B0003046394600F044FE4FF0000B8046894615
:1025C00011E73046394600F05FFB42464B4600F0CB
:1025D0000DFD02460B464046494600F053FB44467B
:1025E0004D46804689469CE747F6FF73C4F20303D5
:1025F0009E4223DC002310EE100A0022C3F6F8737B
:10260000294600F03FFB002306460F460022C3F692
:10261000F8732046294600F0E9FC00230022C3F6A7
:10262000F07300F031FB02460B463046394600F0AD
:1026300007FE4FF0020B80468946D4E600210020B9
:10264000CBF6F07110EE102A2B4600F0F9FD4FF09A
:10265000030B80468946C6E6002310EE100A0022CE
:10266000C3F6F073294600F00DFB002306460F4623
:102670000022C3F6F0732046294600F005FB02460F
:102680000B463046394600F0DBFD4FF0010B80462B
:102690008946A8E6AFF300809C7500883CE4377E4D
:1026A00000400008E03F000811DA22E33AAD903F15
:1026B000EB0D76244B7BA93F513DD0A0660DB13F79
:1026C0006E204CC5CD45B73FFF8300922449C23FE1
:1026D0000D5555555555D53F2F6C6A2C44B4A2BFA6
:1026E0009AFDDE522DDEAD3F6D9A74AFF2B0B33F6E
:1026F000711623FEC671BC3FC4EB98999999C93FE6
:1027000051EC100B53EC102B21F0004343EC102B39
:10271000704700BF53EC102BC3F30A5110B51C4691
:10272000A1F2FF33132B18DC002B39DB4FF6FF71BE
:10273000C0F20F0141FA03F101EA040010430BD08B
:102740004FF4002242FA03F31C1924EA0104002288
:102750002146104641EC100B10BD332B0CDDB3F5B8
:10276000806FF9D151EC100B10EE102A0B4600F0DF
:102770008BFA41EC100B10BDA1F213434FF0FF3068
:1027800020FA03F31342E7D0C1F58661012002313C
:1027900000FA01F18A1828BF241822EA0302D7E7B9
:1027A000013304F0004401D00022D1E744F07F540B
:1027B00044F440140022CBE700F05EB810B52DEDD4
:1027C000048BB0EE408AF0EE608A284C8AB000F0AC
:1027D0005BF994F90030B0EE409AF0EE609A013364
:1027E0000DD0B0EE480AF0EE680A00F01BFA30B1E6
:1027F00051EC180B0022002300F06AFE38B9B0EE4D
:10280000490AF0EE690A0AB0BDEC048B10BD184B02
:102810002478019301230093002308938DED048B0A
:102820008DED028B74B90022002343EC172B8DED44
:10283000067B684600F020FA70B1089B8BB99DEDCD
:10284000069BDCE70020002102460B4600F0F8FC66
:10285000022CCDE90601ECD100F0E4FE2123036057
:10286000EBE700F0DFFE089B0360E8E718000020BC
:10287000204000080000000053EC112BB0EE407A1D
:10288000F0EE607AC2F1000C2DE9F0414CEA020C46
:10289000002423F0004747EADC7CC7F6F074A44527
:1028A00011EE105A1E4651EC100B46D8C0F100082C
:1028B00021F0004C48EA00084CEAD878A0453CD802
:1028C00003F1404606F58016164356D09C1704F0D7
:1028D00002045CEA000044EAD1743CD03D4347D096
:1028E0000022C7F6F072974255D00022C7F6F07268
:1028F00094453DD0C7EB0C073F153C2F47DC17F143
:102900003C0FACBF0027012717EAD3776FD0002018
:102910000021012C66D0022C55D041EC170BA4B13C
:1029200057A3D3E9002300F0ADF945A3D3E9002371
:1029300000F0A8F941EC170B07E051EC170B53EC32
:10294000112B00F0A1F941EC170BB0EE470AF0EEA5
:10295000670ABDE8F081032CC0D801A252F824F028
:102960004B2900084B290008892900088329000801
:10297000002925DB9FED2E7BE7E7BDE8F041FFF75F
:10298000EFBC9FED2D7BE0E79FED2D7BDDE728A1E0
:10299000D1E90001BDE7BC4538D0032CA5D801A280
:1029A00052F824F0BB290008B5290008892900083D
:1029B000832900089FED247BC7E79FED257BC4E7B3
:1029C0009FED257BC1E72EA3D3E9002300F05AF940
:1029D00002460B461AA1D1E9000100F053F941EC7F
:1029E000170BB2E701F1004141EC170BADE753ECD7
:1029F000112B51EC170B00F023FC41EC100BFFF7EF
:102A00007FFEFFF7ADFC51EC100B82E7032CAFD833
:102A1000DFE804F00B0805029FED117B95E79FEDC1
:102A2000127B92E79FED127B8FE79FED137B8CE784
:102A3000182D4454FB21F93F182D4454FB2109C0A3
:102A4000182D4454FB2109400000000000000080C4
:102A50000000000000000000182D4454FB21F9BFC5
:102A6000D221337F7CD902C0D221337F7CD902406E
:102A7000182D4454FB21E9BF182D4454FB21E93F94
:102A8000075C143326A6A13C2DE9F84353EC102B28
:102A900000242646C7F6F074C7F6F0761C40B44210
:102AA0002DED028BB0EE408AF0EE608A1D4619468D
:102AB00010EE100A00F09880002B79DD1F1500F051
:102AC000828021F07F43A7F2FF3723F47003FA07D7
:102AD00043F480135ED4C20F4FF0000C02EB4303AB
:102AE0007F104200162460464FF400114518D60F9F
:102AF0009D42DEBFC5EB030368188C444908013CC6
:102B00004FEA420206EB4303F0D12026A0464FF0E5
:102B100000410EE081461B1A954288BF013B521BC3
:102B200064184846D50F49085200013E05EB43039F
:102B300015D0984201EB080503DB954298BF83420C
:102B4000F0D105F00049B9F1004F05EB0108E1D1E2
:102B5000B8F1000FA8BF00F10109DCDADAE713438E
:102B60001DD166084FEA6C0101F17F511CF0010F85
:102B700001F5001118BF46F0004601EB075332463D
:102B800043EC182BB0EE480AF0EE680ABDEC028B5D
:102B9000BDE8F883C20F02EB430340009BE7631CD0
:102BA00008BF0CF1010CDDD004F001031C19D8E7BB
:102BB00023F000411143E5D03BBB1F46C10A153F3E
:102BC00040050029FAD011F480131AD149000133CD
:102BD000CC02FBD5C3F10104C3F1200220FA02F2BA
:102BE0003F19114398406CE751EC100B00F0FEF9CF
:102BF00002460B4651EC180B00F046F841EC180B5E
:102C0000C0E7202201240023E8E751EC100B0B461B
:102C100000F038F802460B4600F012FB41EC180BAE
:102C2000B0E700BF53EC102B52EA030101D10220A0
:102C30007047D2F1010138BF0021B3F1004F08BF46
:102C4000002AF4D023F000434FF6FF72A3F5801062
:102C5000C7F6DF72904201D804207047B3F5801F99
:102C600001D2032070470020C7F6F070834214BFE2
:102C7000002001F0010070470020704781F0004102
:102C800002E000BF83F0004330B54FEA41044FEA51
:102C9000430594EA050F08BF90EA020F1FBF54EAEC
:102CA000000C55EA020C7FEA645C7FEA655C00F088
:102CB000E2804FEA5454D4EB5555B8BF6D420CDD59
:102CC0002C4480EA020281EA030382EA000083EADC
:102CD000010180EA020281EA0303362D88BF30BD7C
:102CE00011F0004F4FEA01314FF4801C4CEA1131D2
:102CF00002D0404261EB410113F0004F4FEA033331
:102D00004CEA133302D0524263EB430394EA050FBB
:102D100000F0A780A4F10104D5F1200E0DDB02FA2A
:102D20000EFC22FA05F2801841F1000103FA0EF2BE
:102D3000801843FA05F359410EE0A5F120050EF184
:102D4000200E012A03FA0EFC28BF4CF0020C43FAB5
:102D500005F3C01851EBE37101F0004507D54FF0C2
:102D6000000EDCF1000C7EEB00006EEB0101B1F512
:102D7000801F1BD3B1F5001F0CD349085FEA300058
:102D80004FEA3C0C04F101044FEA445212F5800F63
:102D900080F09A80BCF1004F08BF5FEA500C50F100
:102DA000000041EB045141EA050130BD5FEA4C0CE3
:102DB000404141EB010111F4801FA4F10104E9D16C
:102DC00091F0000F04BF01460020B1FA81F308BF63
:102DD0002033A3F10B03B3F120020CDA0C3208DD2F
:102DE00002F1140CC2F10C0201FA0CF021FA02F10A
:102DF0000CE002F11402D8BFC2F1200C01FA02F17A
:102E000020FA0CFCDCBF41EA0C019040E41AA2BF9E
:102E100001EB0451294330BD6FEA04041F3C1CDA66
:102E20000C340EDC04F11404C4F1200220FA04F086
:102E300001FA02F340EA030021FA04F345EA030130
:102E400030BDC4F10C04C4F1200220FA02F001FAF2
:102E500004F340EA0300294630BD21FA04F0294674
:102E600030BD94F0000F83F4801306BF81F480110D
:102E70000134013D4EE77FEA645C18BF7FEA655C80
:102E800029D094EA050F08BF90EA020F05D054EA52
:102E9000000C04BF1946104630BD91EA030F1EBF57
:102EA0000021002030BD5FEA545C05D1400049415B
:102EB00028BF41F0004130BD14F580043CBF01F54E
:102EC000801130BD01F0004545F0FE4141F4700134
:102ED0004FF0000030BD7FEA645C1ABF194610460F
:102EE0007FEA655C1CBF0B46024650EA013406BF10
:102EF00052EA033591EA030F41F4002130BD00BFCF
:102F000090F0000F04BF0021704730B54FF480648B
:102F100004F132044FF000054FF0000150E700BF0C
:102F200090F0000F04BF0021704730B54FF480646B
:102F300004F1320410F0004548BF40424FF0000158
:102F40003EE700BF42004FEAE2014FEA31014FEA9B
:102F500002701FBF12F07F4393F07F4F81F06051EA
:102F6000704792F0000F14BF93F07F4F704730B559
:102F70004FF4607401F0004521F0004120E700BFEC
:102F800050EA010208BF704730B54FF000050AE073
:102F900050EA010208BF704730B511F0004502D574
:102FA000404261EB41014FF4806404F132045FEA76
:102FB000915C3FF4DCAE4FF003025FEADC0C18BF1B
:102FC00003325FEADC0C18BF033202EBDC02C2F111
:102FD000200300FA03FC20FA02F001FA03FE40EAA3
:102FE0000E0021FA02F11444C1E600BF70B54FF0A3
:102FF000FF0C4CF4E06C1CEA11541DBF1CEA135585
:1030000094EA0C0F95EA0C0F00F0DEF82C4481EAEC
:10301000030621EA4C5123EA4C5350EA013518BF0C
:1030200052EA033541F4801143F4801338D0A0FBF9
:1030300002CE4FF00005E1FB02E506F00042E0FBA6
:1030400003E54FF00006E1FB03569CF0000F18BFAC
:103050004EF0010EA4F1FF04B6F5007F64F5407454
:1030600004D25FEA4E0E6D4146EB060642EAC621E7
:1030700041EA55514FEAC52040EA5E504FEACE2E54
:10308000B4F1FD0C88BFBCF5E06F1ED8BEF1004F57
:1030900008BF5FEA500E50F1000041EB045170BDD3
:1030A00006F0004646EA010140EA020081EA030117
:1030B000B4EB5C04C2BFD4EB0C0541EA045170BD13
:1030C00041F480114FF0000E013C00F3AB8014F18D
:1030D000360FDEBF002001F0004170BDC4F10004D6
:1030E000203C35DA0C341BDC04F11404C4F1200557
:1030F00000FA05F320FA04F001FA05F240EA0200B2
:1031000001F0004221F0004110EBD37021FA04F6E7
:1031100042EB06015EEA430E08BF20EAD37070BDA1
:10312000C4F10C04C4F1200500FA04F320FA05F000
:1031300001FA04F240EA020001F0004110EBD37002
:1031400041F100015EEA430E08BF20EAD37070BD72
:10315000C4F1200500FA05F24EEA020E20FA04F34B
:1031600001FA05F243EA020321FA04F001F00041FA
:1031700021FA04F220EA020000EBD3705EEA430E6B
:1031800008BF20EAD37070BD94F0000F0FD101F09A
:103190000046400041EB010111F4801F08BF013CD3
:1031A000F7D041EA060195F0000F18BF704703F011
:1031B0000046520043EB030313F4801F08BF013D98
:1031C000F7D043EA0603704794EA0C0F0CEA135554
:1031D00018BF95EA0C0F0CD050EA410618BF52EA0E
:1031E0004306D1D181EA030101F000414FF0000014
:1031F00070BD50EA410606BF1046194652EA430622
:1032000019D094EA0C0F02D150EA013613D195EA95
:103210000C0F05D152EA03361CBF104619460AD1DD
:1032200081EA030101F0004141F0FE4141F47001E7
:103230004FF0000070BD41F0FE4141F4780170BDD7
:1032400070B54FF0FF0C4CF4E06C1CEA11541DBF3C
:103250001CEA135594EA0C0F95EA0C0F00F0A7F83E
:10326000A4EB050481EA030E52EA03354FEA01316B
:1032700000F088804FEA03334FF0805545EA13137E
:1032800043EA12634FEA022245EA111545EA106546
:103290004FEA00260EF000419D4208BF964244F1DD
:1032A000FD0404F5407402D25B084FEA3202B61AFC
:1032B00065EB03055B084FEA32024FF480104FF4D0
:1032C000002CB6EB020E75EB030E22BFB61A754644
:1032D00040EA0C005B084FEA3202B6EB020E75EBD7
:1032E000030E22BFB61A754640EA5C005B084FEA3F
:1032F0003202B6EB020E75EB030E22BFB61A75460C
:1033000040EA9C005B084FEA3202B6EB020E75EB16
:10331000030E22BFB61A754640EADC0055EA060ED7
:1033200018D04FEA051545EA16754FEA06164FEA1A
:10333000C30343EA52734FEAC2025FEA1C1CC0D1C6
:1033400011F4801F0BD141EA00014FF000004FF053
:10335000004CB6E711F4801F04BF01430020B4F114
:10336000FD0C88BFBCF5E06F3FF6AFAEB5EB030CCC
:1033700004BFB6EB020C5FEA500C50F1000041EBC9
:10338000045170BD0EF0004E4EEA113114EB5C0496
:10339000C2BFD4EB0C0541EA045170BD41F4801169
:1033A0004FF0000E013C90E645EA060E8DE60CEA71
:1033B000135594EA0C0F08BF95EA0C0F3FF43BAF8E
:1033C00094EA0C0F0AD150EA01347FF434AF95EA45
:1033D0000C0F7FF425AF104619462CE795EA0C0F29
:1033E00006D152EA03353FF4FDAE1046194622E7F6
:1033F00050EA410618BF52EA43067FF4C5AE50EAD0
:1034000041047FF40DAF52EA43057FF4EBAE12E7BF
:103410004FF0FF3C06E000BF4FF0010C02E000BFA0
:103420004FF0010C4DF804CD4FEA410C7FEA6C5C83
:103430004FEA430C18BF7FEA6C5C1BD001B050EA26
:10344000410C0CBF52EA430C91EA030F02BF90EA11
:10345000020F0020704710F1000F91EA030F58BFD0
:10346000994208BF90422CBFD8176FEAE37040F032
:10347000010070474FEA410C7FEA6C5C02D150EAD0
:10348000013C07D14FEA430C7FEA6C5CD6D152EA8B
:10349000033CD3D05DF8040B704700BF8446104650
:1034A00062468C461946634600E000BF01B5FFF74F
:1034B000B7FF002848BF10F1000F01BD4DF808ED1F
:1034C000FFF7F4FF0CBF012000205DF808FB00BFF0
:1034D0004DF808EDFFF7EAFF34BF012000205DF84A
:1034E00008FB00BF4DF808EDFFF7E0FF94BF012097
:1034F00000205DF808FB00BF4DF808EDFFF7CEFF98
:1035000094BF012000205DF808FB00BF4DF808EDD6
:10351000FFF7C4FF34BF012000205DF808FB00BFA7
:103520004FEA410212F5001215D211D56FF47873EB
:10353000B3EB625212D94FEAC12343F0004343EA8E
:10354000505311F0004F23FA02F018BF4042704769
:103550004FF00000704750EA013005D111F00040F3
:1035600008BF6FF0004070474FF00000704700BF89
:103570004FEA4102B2F1E04324BFB3F5001CDCF195
:10358000FE5C0DD901F0004C4FEAC0024CEA5070CD
:10359000B2F1004F40EB830008BF20F001007047FC
:1035A00011F0804F21D113F13872BCBF01F00040FF
:1035B000704741F480114FEA5252C2F11802C2F131
:1035C000200C10FA0CF320FA02F018BF40F00100B2
:1035D0004FEAC1234FEAD32303FA0CFC40EA0C0064
:1035E00023FA02F34FEA4303CCE77FEA625307D1A1
:1035F00050EA01331EBF4FF0FE4040F440007047D8
:1036000001F0004040F0FE4040F40000704700BF71
:1036100010B5034C14B1AFF3008010BD204610BDAF
:1036200000000000014B1868704700BF80000020B8
:1036300008B5084B04461BB10021AFF3008001E040
:1036400000F00CF8044B1868836A03B198472046D1
:1036500000F05AFC000000002C40000870B5094B37
:10366000094CE41AA41003EB8406002502E0725909
:103670009047013C043D002CF9D1BDE8704000F0BA
:103680004BBC00BF880000208C00002070B50E4BA2
:103690000E4DED1AAD1000241E4603E056F824200E
:1036A00090470134AC42F9D100F030FC084D094B91
:1036B000ED1AAD1000241E4603E056F82420904772
:1036C0000134AC42F9D170BD840000208400002098
:1036D00088000020840000208218034601E003F8DF
:1036E000011B9342FBD170470EB400B59CB04FF460
:1036F0000271ADF814106FF000411DAB04910791F9
:103700004FF6FF71ADF81610084953F8042B0290DC
:1037100006900868019302A900F064F8029B002259
:103720001A701CB05DF804EB03B0704780000020F5
:103730002DE9F8439368064689461446002B3BD191
:10374000928912F4906F37D0616923692768032545
:1037500002204D43FF1A95FBF0F5791C02F48062BC
:10376000A94212B2A8BF3D18304682B1294600F0E6
:103770000FFB804600B914E021693A4600F064FB73
:10378000A38923F4906343F08003A3810CE01946DE
:103790002A4600F062FB804630B93046216900F0CD
:1037A000B5FA0C23336012E008EB07036561ED1BEB
:1037B000C4F810802360A560A368002B0FDD236888
:1037C00003F8019B2360A368013BA36007E0A38982
:1037D00043F04003A3814FF0FF30BDE8F8830020A1
:1037E000BDE8F8832DE9F04F9DB0064603938B8921
:1037F00003F080031BB20D46144663B10B6953B945
:10380000402100F0C5FA2860286110B90C2333600C
:10381000D6E040236B610023099320238DF82930E3
:10382000DFF8AC9130238DF82A3023469A4613F8FE
:10383000012B1AB9BAEB04080FD116E0252AF5D1ED
:10384000F8E7304614F80B102A46FFF771FF0130F5
:1038500000F0AF800BF1010B01E04FF0000BC3450E
:10386000EFDB099A02EB080309939AF80030002B6A
:1038700000F09F8000234FF0FF32049307930592DE
:1038800006938DF853301A930AF1010A4FF0010B99
:1038900005E04E4A801A0BFA00F0034304935446A5
:1038A0004A482178052200F0C1FA0AF1010A049B76
:1038B0000028EED1D90602D520228DF853201A0710
:1038C00002D52B228DF8532022782A2A03D0079B79
:1038D00021460A2010E0039A111D12680391002A64
:1038E00001DB079204E0524243F002030792049383
:1038F000013408E000FB03230C4601312278303A02
:10390000092AF7D9079323782E2B19D163782A2B0C
:1039100009D1039B1A1D1B6803920234002BB8BF08
:103920004FF0FF330BE0611C00230A2001E000FB95
:1039300003230C4601312278303A092AF7D905933E
:1039400023482178032200F071FA40B14023C9EBEB
:10395000000003FA00F0049B03430493013414F8BD
:10396000011B1C488DF82810062200F05FFA88B170
:10397000194B33B9039B073323F007030833039331
:1039800013E003AB0093304604A92A46134BAFF370
:10399000008007E003AB0093304604A92A460F4B92
:1039A00000F08EF8431C074603D0099BDB190993EE
:1039B0003BE7AB8903F040031BB20BB9099801E068
:1039C0004FF0FF301DB0BDE8F08F00BF3040000861
:1039D000364000083A400008000000003137000877
:1039E0002DE9F047154699468A680B69DDF820A055
:1039F0009A42A8BF13462B6091F8432080460C469C
:103A00000AB101332B6023689A0602D52B68023372
:103A10002B60266816F0060613D094F843602368DE
:103A2000003618BF01269B0611D419E04046617E7E
:103A30004A46D047013003D14FF0FF30BDE8F08750
:103A40000136E2682B68D31A9E42EFDBE5E7A31943
:103A5000302283F8432094F84520023683F844202E
:103A6000002708E0E319404693F843104A46D04740
:103A70000130E1D00137B742F4DB23682A68E168FE
:103A800003F00603042B08BFC2EB01052369A268FB
:103A90000CBF25EAE57500259A42C4BFC3EB0203BB
:103AA000ED18002606E04046A17E4A46D047013088
:103AB000C2D00136AE42F6DB0020BDE8F087000040
:103AC0002DE9F0430C4685B0257E0C996E2D90466D
:103AD0000746994604F1430200F0AC800FD8632DED
:103AE0001DD006D8002D00F0BD80582D40F0CD80AF
:103AF0004FE0642D1CD0692D40F0C78018E0732D75
:103B000000F0B48005D86F2D2BD0702D40F0BD8013
:103B100043E0752D25D0782D40F0B78041E00B684B
:103B20001A1D1B680A6004F1420684F84230B0E0B6
:103B300020680B6810F0800F02D0181D086008E0A4
:103B400010F0400F03F10400086002D0B3F9001038
:103B500000E01968002945DA2D23494284F84330F2
:103B600040E020680B6810F0800F02D0181D08603C
:103B700007E010F0400F03F10400086001D019883D
:103B800000E01968237E5F4D6F2B14BF0A230823C2
:103B900024E084F845505B4D07E0236843F02003A0
:103BA00023607823584D84F8453020680B6810F066
:103BB000800F03F104060E6000D003E0410601D53A
:103BC000198800E01968C60744BF40F02000206053
:103BD00019B9236823F0200323601023002084F800
:103BE000430001E0474D0A236668002EA66003DB10
:103BF000206820F00400206001B96EB104F1420099
:103C0000B1FBF3FE03FB1E110646695C00F80119C7
:103C100071460029F4D100E01646921B082B226160
:103C20003CD12368D80739D56368934236DC01322A
:103C3000626033E020680B6810F0800F05D0181D1B
:103C40000860196863690B600CE010F0400F03F125
:103C50000400086003D0196863690B8002E06169A1
:103C60001B68196000232361164617E00B681A1DB4
:103C70000A601E68304600F025F9636820619842AA
:103C800088BF23612369636005E004F1420684F87C
:103C9000425001232361002384F84330CDF8009083
:103CA0003846214603AA4346FFF79AFE01300AD15F
:103CB0004FF0FF3023E03846715D4246C84701307F
:103CC000F6D0013500E0002523699D42F3DB23682F
:103CD00099070DD4E068039B9842B8BF18460EE0E0
:103CE0003846617E4246C8470130E1D0013500E0E8
:103CF0000025E268039BD31A9D42F1DBEAE705B099
:103D0000BDE8F083414000085240000830B500296A
:103D10003BD051F8042C0B1F1C49002AB8BF9B183C
:103D20000A6812B95A600B6030BD93420CD2196810
:103D30005818904203D15A588918426819605A603D
:103D4000124A136030BD0A46516809B19942FAD946
:103D5000146815199D420AD11B68E318D0188842CF
:103D6000136012D108681B1813604B680CE002D96D
:103D70000C23036030BD18681C188C4203D10C68FA
:103D80004968001918605960536030BDB0000020C8
:103D900070B5CD1C25F0030508350C2D38BF0C255A
:103DA000002D064629DB8D4200D226E01E4B1B6803
:103DB0001C4612E02268521B0DD40B2A02D9226045
:103DC000A41812E0A34203D16368174A136018E0F5
:103DD00062685A6015E023466468002CEAD11AE054
:103DE000CC1C24F003048C4201D1256009E030464C
:103DF000611A00F057F80130F7D10C23336000202E
:103E000070BD04F10B00231D20F00700C31A0AD077
:103E10005A42E25070BD2946304600F043F8431C38
:103E20000146DDD1E9E770BDB000002010B5C9B290
:103E30000346821803E0047801338C4203D0934296
:103E40001846F8D1002010BD10B5002302E0CC5C6C
:103E5000C45401339342FAD110BDF8B50646154655
:103E60000C4621B91146BDE8F840FFF791BF1AB9D9
:103E7000FFF74CFF2C4612E000F02CF8A8420ED2BF
:103E800030462946FFF784FF074638B121462A46C7
:103E9000FFF7DAFF30462146FFF738FF3C46204661
:103EA000F8BD000038B5064C0023054608462360DF
:103EB00000F01AF8431C02D1236803B12B6038BD0F
:103EC00094070020034613F8012B002AFBD1181A8F
:103ED0000138704751F8040C002802DA04390B58F5
:103EE000C018043870470000064940F298720B6809
:103EF000C2F20002002B08BF1346181808601846CB
:103F0000704700BFB4000020FEE700BFF8B500BF57
:103F1000F8BC08BC9E467047F8B500BFF8BC08BCAA
:103F20009E4670476861746120616C64696B200D06
:103F30000A000000677972783A202564202C2067F7
:103F400079726F793A202564202C206779726F7A14
:103F50003A202564202C200D0A000000616363656F
:103F60006C783A202564202C20616363656C793A73
:103F7000202564202C20616363656C7A3A202564D7
:103F8000202C200D0A000000707573756C613A20BA
:103F90002564204D6167583A202564202C204D610E
:103FA00067593A202564202C204D61675A3A202514
:103FB00064202C200D0A000070697463683A202583
:103FC00064202C20726F6C6C3A202564202C2074A5
:103FD000686574613A202564200D0A000000000025
:103FE000E2652F227F2B7A3C075C143326A6813CA6
:103FF000BDCBF07A8807703C075C143326A6913C51
:104000004FBB610567ACDD3F182D4454FB21E93FF0
:104010009BF681D20B73EF3F182D4454FB21F93FDF
:104020007371727400000000430000001C00002047
:10403000232D302B2000686C4C0065666745464791
:104040000030313233343536373839414243444514
:104050004600303132333435363738396162636483
:0840600065660000000000008D
:0840680074C1FF7F010000009C
:10407000000000000102030401020304060708090E
:10408000D0000000007A030A0100000000000000D8
:104090000000000000000000000000000000000020
:1040A00000000000000000000000000028400008A0
:1040B0000000000000000000000000000000000000
:1040C00000000000000000000000000000000000F0
:1040D00000000000000000000000000000000000E0
:1040E00000000000000000000000000000000000D0
:0C40F0001C000020AD0100088901000840
:04000005080001DC12
:00000001FF
